{
  "contractName": "SquareVerifier",
  "abi": [
    {
      "constant": true,
      "inputs": [
        {
          "internalType": "uint256[2]",
          "name": "a",
          "type": "uint256[2]"
        },
        {
          "internalType": "uint256[2][2]",
          "name": "b",
          "type": "uint256[2][2]"
        },
        {
          "internalType": "uint256[2]",
          "name": "c",
          "type": "uint256[2]"
        },
        {
          "internalType": "uint256[1]",
          "name": "input",
          "type": "uint256[1]"
        }
      ],
      "name": "verifyTx",
      "outputs": [
        {
          "internalType": "bool",
          "name": "r",
          "type": "bool"
        }
      ],
      "payable": false,
      "stateMutability": "view",
      "type": "function"
    }
  ],
  "bytecode": "0x608060405234801561001057600080fd5b50611019806100206000396000f3fe608060405234801561001057600080fd5b506004361061002b5760003560e01c8063dd12931314610030575b600080fd5b61018f600480360361012081101561004757600080fd5b8101908080604001906002806020026040519081016040528092919082600260200280828437600081840152601f19601f82011690508083019250505050505091929192908060800190600280602002604051908101604052809291906000905b828210156100fc578382604002016002806020026040519081016040528092919082600260200280828437600081840152601f19601f820116905080830192505050505050815260200190600101906100a8565b50505050919291929080604001906002806020026040519081016040528092919082600260200280828437600081840152601f19601f820116905080830192505050505050919291929080602001906001806020026040519081016040528092919082600160200280828437600081840152601f19601f82011690508083019250505050505091929192905050506101a9565b604051808215151515815260200191505060405180910390f35b60006101b3610e88565b6040518060400160405280876000600281106101cb57fe5b60200201518152602001876001600281106101e257fe5b60200201518152508160000181905250604051806040016040528060405180604001604052808860006002811061021557fe5b602002015160006002811061022657fe5b602002015181526020018860006002811061023d57fe5b602002015160016002811061024e57fe5b6020020151815250815260200160405180604001604052808860016002811061027357fe5b602002015160006002811061028457fe5b602002015181526020018860016002811061029b57fe5b60200201516001600281106102ac57fe5b602002015181525081525081602001819052506040518060400160405280856000600281106102d757fe5b60200201518152602001856001600281106102ee57fe5b60200201518152508160400181905250606060016040519080825280602002602001820160405280156103305781602001602082028038833980820191505090505b50905060008090505b60018110156103785784816001811061034e57fe5b602002015182828151811061035f57fe5b6020026020010181815250508080600101915050610339565b50600061038582846103a5565b14156103965760019250505061039d565b6000925050505b949350505050565b6000807f30644e72e131a029b85045b68181585d2833e84879b9709143e1f593f000000190506103d3610ebb565b6103db610517565b90508060800151516001865101146103f257600080fd5b6103fa610f02565b6040518060400160405280600081526020016000815250905060008090505b8651811015610490578387828151811061042f57fe5b60200260200101511061044157600080fd5b6104818261047c8560800151600185018151811061045b57fe5b60200260200101518a858151811061046f57fe5b60200260200101516108f4565b610986565b91508080600101915050610419565b506104b38183608001516000815181106104a657fe5b6020026020010151610986565b90506104f9856000015186602001516104cb84610a37565b85604001516104dd8a60400151610a37565b87606001516104ef8960000151610a37565b8960200151610ad1565b6105095760019350505050610511565b600093505050505b92915050565b61051f610ebb565b60405180604001604052807f24a533b1d5f9311b6bb78b547bbf1e06d1a7ac003db794a9581d7a31d1e7a59081526020017f25d6317149b89fca4bd106d9851d4d8faa5d81d5da0f5de31c702a5097aec3dc8152508160000181905250604051806040016040528060405180604001604052807f1fadb9ab462c7314677f5094f2be23649d89d976cccf8d80c9d41ee93010240f81526020017f068279b228c1f45868a274beb20883bfc8401338326165b09f8c366db85b60de815250815260200160405180604001604052807f25b24b12be3312642eb4ad59aaf88d77d94aea756daa6953bff49eac6e921a4081526020017f2cbeaf71436212b60197c9ee747191551cb4dff55a155318750a4630aa948fc18152508152508160200181905250604051806040016040528060405180604001604052807f224fb35e7ae6c1594e0aab0e730b773c14051257ef3ad8261240e0745b23c10c81526020017f1d51726e8bc2f2e9a961961622e782273b63a4778e5921232f906e23cfc75f36815250815260200160405180604001604052807f08526f8ee00186ef31227c79f618e3f4b4ad0bcde09a2465968775bbf2ebf14d81526020017f29102a5878b90bde5c607d50608d865262d676c8e26887135010f18952466b0e8152508152508160400181905250604051806040016040528060405180604001604052807f0d26b029d50a115866c93befcd5f368add8640958919c45f70042f5630a5173581526020017f1370bf0e6dd1cc0adae2f64694e67fe003dc710bd6656b3595be4237cdd66a53815250815260200160405180604001604052807f088000c116d07d4bea2ef2df2175017afa542d13dbae7f8ad1228c269776c74a81526020017f074af3ea4a699b0ca44dfa5fbc14324775e86e4315347f2ca85e3b42084aa0fb8152508152508160600181905250600260405190808252806020026020018201604052801561080657816020015b6107f3610f1c565b8152602001906001900390816107eb5790505b50816080018190525060405180604001604052807f0635d5288590b7bf7b73e5b0326bdb91c429749b7e249b4923d7e1a1e1ebb3fb81526020017f2a53aa0c4c9bd3764d99c529be5329fd09e840622a43842d7bc2d05fa5e73af9815250816080015160008151811061087557fe5b602002602001018190525060405180604001604052807f2a41d489317559d3f15a0aa5adf46f2e888c7de87a7e7c690e350c7c3f655f8781526020017f21c6b31de88349856568a326ea5d30cf5e9cf33fe4bdaadadfb55e1aef041e5e81525081608001516001815181106108e657fe5b602002602001018190525090565b6108fc610f02565b610904610f36565b83600001518160006003811061091657fe5b60200201818152505083602001518160016003811061093157fe5b602002018181525050828160026003811061094857fe5b602002018181525050600060608360808460076107d05a03fa9050806000811461097157610973565bfe5b508061097e57600080fd5b505092915050565b61098e610f02565b610996610f58565b8360000151816000600481106109a857fe5b6020020181815250508360200151816001600481106109c357fe5b6020020181815250508260000151816002600481106109de57fe5b6020020181815250508260200151816003600481106109f957fe5b602002018181525050600060608360c08460066107d05a03fa90508060008114610a2257610a24565bfe5b5080610a2f57600080fd5b505092915050565b610a3f610f02565b60007f30644e72e131a029b85045b68181585d97816a916871ca8d3c208c16d87cfd47905060008360000151148015610a7c575060008360200151145b15610aa0576040518060400160405280600081526020016000815250915050610acc565b60405180604001604052808460000151815260200182856020015181610ac257fe5b0683038152509150505b919050565b600060606004604051908082528060200260200182016040528015610b1057816020015b610afd610f1c565b815260200190600190039081610af55790505b50905060606004604051908082528060200260200182016040528015610b5057816020015b610b3d610f7a565b815260200190600190039081610b355790505b5090508a82600081518110610b6157fe5b60200260200101819052508882600181518110610b7a57fe5b60200260200101819052508682600281518110610b9357fe5b60200260200101819052508482600381518110610bac57fe5b60200260200101819052508981600081518110610bc557fe5b60200260200101819052508781600181518110610bde57fe5b60200260200101819052508581600281518110610bf757fe5b60200260200101819052508381600381518110610c1057fe5b6020026020010181905250610c258282610c35565b9250505098975050505050505050565b60008151835114610c4557600080fd5b6000835190506000600682029050606081604051908082528060200260200182016040528015610c845781602001602082028038833980820191505090505b50905060008090505b83811015610e2a57868181518110610ca157fe5b602002602001015160000151826000600684020181518110610cbf57fe5b602002602001018181525050868181518110610cd757fe5b602002602001015160200151826001600684020181518110610cf557fe5b602002602001018181525050858181518110610d0d57fe5b602002602001015160000151600160028110610d2557fe5b6020020151826002600684020181518110610d3c57fe5b602002602001018181525050858181518110610d5457fe5b602002602001015160000151600060028110610d6c57fe5b6020020151826003600684020181518110610d8357fe5b602002602001018181525050858181518110610d9b57fe5b602002602001015160200151600160028110610db357fe5b6020020151826004600684020181518110610dca57fe5b602002602001018181525050858181518110610de257fe5b602002602001015160200151600060028110610dfa57fe5b6020020151826005600684020181518110610e1157fe5b6020026020010181815250508080600101915050610c8d565b50610e33610fa0565b6000602082602086026020860160086107d05a03fa90508060008114610e5857610e5a565bfe5b5080610e6557600080fd5b600082600060018110610e7457fe5b602002015114159550505050505092915050565b6040518060600160405280610e9b610f1c565b8152602001610ea8610f7a565b8152602001610eb5610f1c565b81525090565b6040518060a00160405280610ece610f1c565b8152602001610edb610f7a565b8152602001610ee8610f7a565b8152602001610ef5610f7a565b8152602001606081525090565b604051806040016040528060008152602001600081525090565b604051806040016040528060008152602001600081525090565b6040518060600160405280600390602082028038833980820191505090505090565b6040518060800160405280600490602082028038833980820191505090505090565b6040518060400160405280610f8d610fc2565b8152602001610f9a610fc2565b81525090565b6040518060200160405280600190602082028038833980820191505090505090565b604051806040016040528060029060208202803883398082019150509050509056fea265627a7a72315820675f0ef7bbdbbecb0128380e9bf52c0009e355c5bc2a15190846aabc612193d164736f6c634300050e0032",
  "source": "pragma solidity >=0.4.21 <0.6.0;\n\nimport \"./ERC721Mintable.sol\";\nimport \"./Verifier.sol\";\n\n// TODO define a contract call to the zokrates generated solidity contract <Verifier> or <renamedVerifier>\ncontract SquareVerifier is Verifier {\n\n}\n\n// TODO define another contract named SolnSquareVerifier that inherits from your ERC721Mintable class\ncontract SolnSquareVerifier is ShantyToken {\n\n    SquareVerifier public verifier;\n\n    // TODO define a solutions struct that can hold an index & an address\n    struct Solution {\n        uint256 index;\n        address addr;\n    }\n\n    // TODO define an array of the above struct\n    Solution[] private solutions;\n\n    // TODO define a mapping to store unique solutions submitted\n    mapping(bytes32 => Solution) private solutionGuard;\n\n    // TODO Create an event to emit when a solution is added\n    event SolutionAdded(uint index,address addr);\n\n    constructor(address _verifier) ShantyToken() public {\n        verifier = SquareVerifier(_verifier);\n    }\n\n    // TODO Create a function to add the solutions to the array and emit the event\n    function addSolution(address _addr, uint _index, bytes32 key) internal {\n        Solution memory solution = Solution({index: _index, addr: _addr});\n        solutions.push(solution);\n        solutionGuard[key] = solution;\n        emit SolutionAdded(_index, _addr);\n    }\n\n    // TODO Create a function to mint new NFT only after the solution has been verified\n    //  - make sure the solution is unique (has not been used before)\n    //  - make sure you handle metadata as well as tokenSuplly\n    function mint(address _addr, uint256 _index, \n                  uint[2] memory a, uint[2][2] memory b, uint[2] memory c, uint[1] memory input) public {\n                      \n            bytes32 key = keccak256(abi.encodePacked(a, b, c, input));\n            require(solutionGuard[key].addr == address(0), \"Already verified\");\n            require(verifier.verifyTx(a, b, c, input), \"Bad solution\");\n            addSolution(_addr, _index, key);\n            super.mint(_addr, _index);\n    }\n}\n  \n\n\n\n\n\n\n\n\n\n\n\n\n\n\n\n\n\n\n\n\n\n\n\n\n\n\n",
  "sourcePath": "/home/david/Blockchain/Capstone/eth-contracts/contracts/SolnSquareVerifier.sol",
  "compiler": {
    "name": "solc",
    "version": "0.5.14+commit.01f1aaa4.Emscripten.clang"
  },
  "schemaVersion": "3.0.1",
  "updatedAt": "2022-10-06T20:09:13.391Z",
  "devdoc": {
    "methods": {}
  },
  "userdoc": {
    "methods": {}
  }
}